:100000000C9434000C9424020C9419020C943E00BD
:100010000C943E000C943E000C943E000C943E0068
:100020000C943E000C943E000C943E000C943E0058
:100030000C943E000C943E000C943E000C943E0048
:100040000C943E000C943E000C943E000C943E0038
:100050000C943E000C943E000C943E000C943E0028
:100060000C943E000C943E0011241FBECFEFD8E04C
:10007000DEBFCDBF0E942F020C9442020C94000000
:10008000171461F4281451F4391441F44A1431F46A
:100090005B1421F46C1411F4D1E00895D0E05F9862
:1000A00008951CE214B911E51CBD1AE028E093D0B4
:1000B00019E023E690D01BE027E08DD01CE021E082
:1000C0008AD019E020E087D018E020E084D017E043
:1000D00020E081D016E020E07ED015E020E07BD04B
:1000E00014E020E078D013E020E075D012E020E0AA
:1000F00072D011E020E06FD043990C94CF005C994E
:10010000A3955E99A3955D99A395A33059F119E044
:1001100020E061D011E02EE75ED012E02EE75BD048
:1001200013E020E658D014E020E655D015E020E694
:1001300052D016E020E64FD0A03021F0A13041F09F
:10014000A23059F017E020E646D008950C94EA005A
:1001500017E021E640D00C94EA0017E023E63BD0FC
:100160000C94EA0017E028E336D016E024E433D0FC
:1001700015E024E430D014E024E42DD013E02CE783
:100180002AD012E024E427D011E024E424D010E0A7
:1001900024E421D0459A0E94F6004598089511E084
:1001A0002CE719D012E024E416D013E024E413D095
:1001B00014E024E410D014E024E40DD015E024E48D
:1001C0000AD016E024E407D017E024E404D018E0B5
:1001D00024E401D008952A981EBD3DB537FFFDCF18
:1001E0002EBD3DB537FFFDCF2A9A089541E34093D8
:1001F00085004DE24093840040E04093800045E05C
:100200004093810046B340FFFDCF41E046BB40E054
:1002100040938100089590E0E0E0A0E0882780937B
:10022000C0008093C50087E68093C40088E1809376
:10023000C10086E08093C200D0E04FEF389A40ECD6
:1002400040937C0047E840937A00389839983A9870
:100250003B9A3C9A3D9A52985398549A569A559A7A
:100260005A9A5B9A209A219A579A73E07DBB7AE05A
:100270007093690078940895B091C000B5FFFCCFE9
:100280000895702F007F0295005DC02FCA530AF4B5
:100290000895095FFDCF072F0F70005DC02FCA536F
:1002A0000AF40895095FFDCFE7DF0AE00093C60076
:1002B000E3DF0DE00093C6000895E3DFDDDF009388
:1002C000C600E9DFD9DF0093C600089547EC4093EC
:1002D0007A0050917A0054FFFCCF17ED10937A000A
:1002E0002091780030917900032FE7DF022FE5DFBE
:1002F000DBDF33D00BC00093C60093959130A9F09B
:100300009230C9F09330E9F0943089F1913021F0C6
:10031000923029F0933031F0132E222EECCF332E71
:10032000422EE9CF532E622EE6CF4FEF40EC4093A2
:100330007C000C9466014FEF41EC40937C000C94E0
:1003400066014FEF42EC40937C000C9466014FEF46
:1003500043EC40937C000C9466014FEF5FEF64E147
:100360006A95F1F75A95D9F74A95C1F708955F9BB9
:1003700059F0712C822C932CA42CB52CC62C94DF14
:1003800093DF5F980C94C40190E0E7DF0895289B09
:100390000895D13079F05E990C94D7015D990C9451
:1003A000D4015D9A289808955E9A289808955C9AD9
:1003B00028980895439B39F00C94DE014398EAEDA8
:1003C000F3E00C94E901439A5D985E985C98EBED3C
:1003D000F3E0849103D028980895285A4AE0299A96
:1003E00006D0299812D04A95D1F719D008959927A7
:1003F00096BD982F97BD9CE095BD95B391FFFDCF1D
:10040000992795BD92E095BB08959FEFE2EDF2E04C
:10041000FA95F1F7EA95D9F79A95C1F708959FEF04
:10042000EFEFF9E2FA95F1F7EA95D9F79A95C1F766
:1004300008951F920F920FB60F9211245F9A0F909A
:100440000FBE0F901F9018951F920F920FB60F922C
:100450001124289A0F900FBE0F901F9018950E949C
:100460000B010E940B01C0E0D0E00E947B010E94C2
:1004700040000E94C7010E9451002097B1F30E94E2
:080480000000F3CFF894FFCF58
:00000001FF
